{
  "_format": "hh-sol-artifact-1",
  "contractName": "DisasterReliefFund",
  "sourceName": "contracts/DisasterReliefFund.sol",
  "abi": [
    {
      "inputs": [
        {
          "internalType": "uint256",
          "name": "_minDonation",
          "type": "uint256"
        },
        {
          "internalType": "uint256",
          "name": "_withdrawalLimit",
          "type": "uint256"
        }
      ],
      "stateMutability": "nonpayable",
      "type": "constructor"
    },
    {
      "anonymous": false,
      "inputs": [
        {
          "indexed": true,
          "internalType": "address",
          "name": "oldAdmin",
          "type": "address"
        },
        {
          "indexed": true,
          "internalType": "address",
          "name": "newAdmin",
          "type": "address"
        }
      ],
      "name": "AdminChanged",
      "type": "event"
    },
    {
      "anonymous": false,
      "inputs": [
        {
          "indexed": true,
          "internalType": "address",
          "name": "donor",
          "type": "address"
        },
        {
          "indexed": false,
          "internalType": "uint256",
          "name": "amount",
          "type": "uint256"
        }
      ],
      "name": "DonationReceived",
      "type": "event"
    },
    {
      "anonymous": false,
      "inputs": [
        {
          "indexed": false,
          "internalType": "string",
          "name": "parameter",
          "type": "string"
        },
        {
          "indexed": false,
          "internalType": "uint256",
          "name": "newValue",
          "type": "uint256"
        }
      ],
      "name": "ParameterUpdated",
      "type": "event"
    },
    {
      "anonymous": false,
      "inputs": [
        {
          "indexed": false,
          "internalType": "address",
          "name": "account",
          "type": "address"
        }
      ],
      "name": "Paused",
      "type": "event"
    },
    {
      "anonymous": false,
      "inputs": [
        {
          "indexed": true,
          "internalType": "address",
          "name": "recipient",
          "type": "address"
        },
        {
          "indexed": false,
          "internalType": "uint256",
          "name": "allocation",
          "type": "uint256"
        }
      ],
      "name": "RecipientAdded",
      "type": "event"
    },
    {
      "anonymous": false,
      "inputs": [
        {
          "indexed": false,
          "internalType": "address",
          "name": "account",
          "type": "address"
        }
      ],
      "name": "Unpaused",
      "type": "event"
    },
    {
      "anonymous": false,
      "inputs": [
        {
          "indexed": true,
          "internalType": "address",
          "name": "victim",
          "type": "address"
        }
      ],
      "name": "VictimVerified",
      "type": "event"
    },
    {
      "anonymous": false,
      "inputs": [
        {
          "indexed": true,
          "internalType": "address",
          "name": "recipient",
          "type": "address"
        },
        {
          "indexed": false,
          "internalType": "uint256",
          "name": "amount",
          "type": "uint256"
        }
      ],
      "name": "Withdrawal",
      "type": "event"
    },
    {
      "inputs": [],
      "name": "AUTO_WITHDRAW_LIMIT",
      "outputs": [
        {
          "internalType": "uint256",
          "name": "",
          "type": "uint256"
        }
      ],
      "stateMutability": "view",
      "type": "function"
    },
    {
      "inputs": [],
      "name": "COOLDOWN_PERIOD",
      "outputs": [
        {
          "internalType": "uint256",
          "name": "",
          "type": "uint256"
        }
      ],
      "stateMutability": "view",
      "type": "function"
    },
    {
      "inputs": [
        {
          "internalType": "address",
          "name": "recipient",
          "type": "address"
        },
        {
          "internalType": "uint256",
          "name": "allocation",
          "type": "uint256"
        }
      ],
      "name": "addRecipient",
      "outputs": [],
      "stateMutability": "nonpayable",
      "type": "function"
    },
    {
      "inputs": [],
      "name": "admin",
      "outputs": [
        {
          "internalType": "address",
          "name": "",
          "type": "address"
        }
      ],
      "stateMutability": "view",
      "type": "function"
    },
    {
      "inputs": [],
      "name": "donate",
      "outputs": [],
      "stateMutability": "payable",
      "type": "function"
    },
    {
      "inputs": [],
      "name": "emergencyWithdraw",
      "outputs": [],
      "stateMutability": "nonpayable",
      "type": "function"
    },
    {
      "inputs": [
        {
          "internalType": "address",
          "name": "user",
          "type": "address"
        }
      ],
      "name": "getDonation",
      "outputs": [
        {
          "internalType": "uint256",
          "name": "",
          "type": "uint256"
        }
      ],
      "stateMutability": "view",
      "type": "function"
    },
    {
      "inputs": [
        {
          "internalType": "address",
          "name": "recipient",
          "type": "address"
        }
      ],
      "name": "getRecipientAllocation",
      "outputs": [
        {
          "internalType": "uint256",
          "name": "",
          "type": "uint256"
        }
      ],
      "stateMutability": "view",
      "type": "function"
    },
    {
      "inputs": [
        {
          "internalType": "address",
          "name": "recipient",
          "type": "address"
        }
      ],
      "name": "getWithdrawnAmount",
      "outputs": [
        {
          "internalType": "uint256",
          "name": "",
          "type": "uint256"
        }
      ],
      "stateMutability": "view",
      "type": "function"
    },
    {
      "inputs": [],
      "name": "minDonation",
      "outputs": [
        {
          "internalType": "uint256",
          "name": "",
          "type": "uint256"
        }
      ],
      "stateMutability": "view",
      "type": "function"
    },
    {
      "inputs": [],
      "name": "pause",
      "outputs": [],
      "stateMutability": "nonpayable",
      "type": "function"
    },
    {
      "inputs": [],
      "name": "paused",
      "outputs": [
        {
          "internalType": "bool",
          "name": "",
          "type": "bool"
        }
      ],
      "stateMutability": "view",
      "type": "function"
    },
    {
      "inputs": [
        {
          "internalType": "address",
          "name": "newAdmin",
          "type": "address"
        }
      ],
      "name": "setAdmin",
      "outputs": [],
      "stateMutability": "nonpayable",
      "type": "function"
    },
    {
      "inputs": [
        {
          "internalType": "uint256",
          "name": "amount",
          "type": "uint256"
        }
      ],
      "name": "setMinDonation",
      "outputs": [],
      "stateMutability": "nonpayable",
      "type": "function"
    },
    {
      "inputs": [
        {
          "internalType": "uint256",
          "name": "amount",
          "type": "uint256"
        }
      ],
      "name": "setWithdrawalLimit",
      "outputs": [],
      "stateMutability": "nonpayable",
      "type": "function"
    },
    {
      "inputs": [],
      "name": "totalDonations",
      "outputs": [
        {
          "internalType": "uint256",
          "name": "",
          "type": "uint256"
        }
      ],
      "stateMutability": "view",
      "type": "function"
    },
    {
      "inputs": [],
      "name": "unpause",
      "outputs": [],
      "stateMutability": "nonpayable",
      "type": "function"
    },
    {
      "inputs": [
        {
          "internalType": "address",
          "name": "",
          "type": "address"
        }
      ],
      "name": "verifiedVictims",
      "outputs": [
        {
          "internalType": "bool",
          "name": "",
          "type": "bool"
        }
      ],
      "stateMutability": "view",
      "type": "function"
    },
    {
      "inputs": [
        {
          "internalType": "address",
          "name": "victim",
          "type": "address"
        }
      ],
      "name": "verifyVictim",
      "outputs": [],
      "stateMutability": "nonpayable",
      "type": "function"
    },
    {
      "inputs": [
        {
          "internalType": "uint256",
          "name": "amount",
          "type": "uint256"
        }
      ],
      "name": "withdraw",
      "outputs": [],
      "stateMutability": "nonpayable",
      "type": "function"
    },
    {
      "inputs": [],
      "name": "withdrawalLimit",
      "outputs": [
        {
          "internalType": "uint256",
          "name": "",
          "type": "uint256"
        }
      ],
      "stateMutability": "view",
      "type": "function"
    }
  ],
  "bytecode": "0x60806040523480156200001157600080fd5b50604051620025953803806200259583398181016040528101906200003791906200012d565b600082116200007d576040517f08c379a00000000000000000000000000000000000000000000000000000000081526004016200007490620001d5565b60405180910390fd5b336000806101000a81548173ffffffffffffffffffffffffffffffffffffffff021916908373ffffffffffffffffffffffffffffffffffffffff160217905550816001819055508060028190555060008060146101000a81548160ff0219169083151502179055505050620001f7565b600080fd5b6000819050919050565b6200010781620000f2565b81146200011357600080fd5b50565b6000815190506200012781620000fc565b92915050565b60008060408385031215620001475762000146620000ed565b5b6000620001578582860162000116565b92505060206200016a8582860162000116565b9150509250929050565b600082825260208201905092915050565b7f4d696e20646f6e6174696f6e206d757374206265203e20300000000000000000600082015250565b6000620001bd60188362000174565b9150620001ca8262000185565b602082019050919050565b60006020820190508181036000830152620001f081620001ae565b9050919050565b61238e80620002076000396000f3fe60806040526004361061012a5760003560e01c806372c7df71116100ab578063cbc989a01161006f578063cbc989a0146103b8578063db2e21bc146103f5578063de2ed8931461040c578063ed88c68e14610437578063f798224314610441578063f851a4401461046a5761012a565b806372c7df71146102f95780637ddfe78d1461032457806383a6595f1461034f5780638456cb5914610378578063b7daa5ba1461038f5761012a565b80635a0768ce116100f25780635a0768ce146102145780635c975abb1461023d5780635db91427146102685780636e99d52f146102a5578063704b6c02146102d05761012a565b80631c0e02251461012f5780632d70715d1461015a5780632e1a7d4d146101975780633f4ba83a146101c0578063410a1d32146101d7575b600080fd5b34801561013b57600080fd5b50610144610495565b604051610151919061187a565b60405180910390f35b34801561016657600080fd5b50610181600480360381019061017c91906118f8565b61049b565b60405161018e919061187a565b60405180910390f35b3480156101a357600080fd5b506101be60048036038101906101b99190611951565b6104e4565b005b3480156101cc57600080fd5b506101d56109c1565b005b3480156101e357600080fd5b506101fe60048036038101906101f991906118f8565b610aa2565b60405161020b919061187a565b60405180910390f35b34801561022057600080fd5b5061023b60048036038101906102369190611951565b610aeb565b005b34801561024957600080fd5b50610252610bba565b60405161025f9190611999565b60405180910390f35b34801561027457600080fd5b5061028f600480360381019061028a91906118f8565b610bcd565b60405161029c9190611999565b60405180910390f35b3480156102b157600080fd5b506102ba610bed565b6040516102c7919061187a565b60405180910390f35b3480156102dc57600080fd5b506102f760048036038101906102f291906118f8565b610bf4565b005b34801561030557600080fd5b5061030e610d9f565b60405161031b919061187a565b60405180910390f35b34801561033057600080fd5b50610339610daa565b604051610346919061187a565b60405180910390f35b34801561035b57600080fd5b5061037660048036038101906103719190611951565b610db0565b005b34801561038457600080fd5b5061038d610e7f565b005b34801561039b57600080fd5b506103b660048036038101906103b191906118f8565b610f61565b005b3480156103c457600080fd5b506103df60048036038101906103da91906118f8565b6110ed565b6040516103ec919061187a565b60405180910390f35b34801561040157600080fd5b5061040a611136565b005b34801561041857600080fd5b5061042161139a565b60405161042e919061187a565b60405180910390f35b61043f6113a0565b005b34801561044d57600080fd5b50610468600480360381019061046391906119b4565b611535565b005b34801561047657600080fd5b5061047f61174d565b60405161048c9190611a03565b60405180910390f35b60015481565b6000600660008373ffffffffffffffffffffffffffffffffffffffff1673ffffffffffffffffffffffffffffffffffffffff168152602001908152602001600020549050919050565b600060149054906101000a900460ff1615610534576040517f08c379a000000000000000000000000000000000000000000000000000000000815260040161052b90611a7b565b60405180910390fd5b60008111610577576040517f08c379a000000000000000000000000000000000000000000000000000000000815260040161056e90611ae7565b60405180910390fd5b6002548111156105bc576040517f08c379a00000000000000000000000000000000000000000000000000000000081526004016105b390611b79565b60405180910390fd5b61061162015180600760003373ffffffffffffffffffffffffffffffffffffffff1673ffffffffffffffffffffffffffffffffffffffff1681526020019081526020016000205461177190919063ffffffff16565b421015610653576040517f08c379a000000000000000000000000000000000000000000000000000000000815260040161064a90611be5565b60405180910390fd5b80471015610696576040517f08c379a000000000000000000000000000000000000000000000000000000000815260040161068d90611c51565b60405180910390fd5b600066670758aa7c800082111580156106f85750600860003373ffffffffffffffffffffffffffffffffffffffff1673ffffffffffffffffffffffffffffffffffffffff16815260200190815260200160002060009054906101000a900460ff165b90508061087e576000600560003373ffffffffffffffffffffffffffffffffffffffff1673ffffffffffffffffffffffffffffffffffffffff16815260200190815260200160002054905060008111610786576040517f08c379a000000000000000000000000000000000000000000000000000000000815260040161077d90611ce3565b60405180910390fd5b6000600660003373ffffffffffffffffffffffffffffffffffffffff1673ffffffffffffffffffffffffffffffffffffffff16815260200190815260200160002054905060006107df82846117cf90919063ffffffff16565b905080851115610824576040517f08c379a000000000000000000000000000000000000000000000000000000000815260040161081b90611d75565b60405180910390fd5b610837858361177190919063ffffffff16565b600660003373ffffffffffffffffffffffffffffffffffffffff1673ffffffffffffffffffffffffffffffffffffffff168152602001908152602001600020819055505050505b42600760003373ffffffffffffffffffffffffffffffffffffffff1673ffffffffffffffffffffffffffffffffffffffff1681526020019081526020016000208190555060003373ffffffffffffffffffffffffffffffffffffffff16836040516108e890611dc6565b60006040518083038185875af1925050503d8060008114610925576040519150601f19603f3d011682016040523d82523d6000602084013e61092a565b606091505b505090508061096e576040517f08c379a000000000000000000000000000000000000000000000000000000000815260040161096590611e27565b60405180910390fd5b3373ffffffffffffffffffffffffffffffffffffffff167f7fcf532c15f0a6db0bd6d0e038bea71d30d808c7d98cb3bf7268a95bf5081b65846040516109b4919061187a565b60405180910390a2505050565b60008054906101000a900473ffffffffffffffffffffffffffffffffffffffff1673ffffffffffffffffffffffffffffffffffffffff163373ffffffffffffffffffffffffffffffffffffffff1614610a4f576040517f08c379a0000000000000000000000000000000000000000000000000000000008152600401610a4690611e93565b60405180910390fd5b60008060146101000a81548160ff0219169083151502179055507f5db9ee0a495bf2e6ff9c91a7834c1ba4fdd244a5e8aa4e537bd38aeae4b073aa33604051610a989190611a03565b60405180910390a1565b6000600460008373ffffffffffffffffffffffffffffffffffffffff1673ffffffffffffffffffffffffffffffffffffffff168152602001908152602001600020549050919050565b60008054906101000a900473ffffffffffffffffffffffffffffffffffffffff1673ffffffffffffffffffffffffffffffffffffffff163373ffffffffffffffffffffffffffffffffffffffff1614610b79576040517f08c379a0000000000000000000000000000000000000000000000000000000008152600401610b7090611e93565b60405180910390fd5b806002819055507f3a64504f0bc0c335e2aecb78638a257e0351a3fe0370861fd54ee4190b92093381604051610baf9190611eff565b60405180910390a150565b600060149054906101000a900460ff1681565b60086020528060005260406000206000915054906101000a900460ff1681565b6201518081565b60008054906101000a900473ffffffffffffffffffffffffffffffffffffffff1673ffffffffffffffffffffffffffffffffffffffff163373ffffffffffffffffffffffffffffffffffffffff1614610c82576040517f08c379a0000000000000000000000000000000000000000000000000000000008152600401610c7990611e93565b60405180910390fd5b80610ca28173ffffffffffffffffffffffffffffffffffffffff16611828565b610ce1576040517f08c379a0000000000000000000000000000000000000000000000000000000008152600401610cd890611f79565b60405180910390fd5b8173ffffffffffffffffffffffffffffffffffffffff1660008054906101000a900473ffffffffffffffffffffffffffffffffffffffff1673ffffffffffffffffffffffffffffffffffffffff167f7e644d79422f17c01e4894b5f4f588d331ebfa28653d42ae832dc59e38c9798f60405160405180910390a3816000806101000a81548173ffffffffffffffffffffffffffffffffffffffff021916908373ffffffffffffffffffffffffffffffffffffffff1602179055505050565b66670758aa7c800081565b60025481565b60008054906101000a900473ffffffffffffffffffffffffffffffffffffffff1673ffffffffffffffffffffffffffffffffffffffff163373ffffffffffffffffffffffffffffffffffffffff1614610e3e576040517f08c379a0000000000000000000000000000000000000000000000000000000008152600401610e3590611e93565b60405180910390fd5b806001819055507f3a64504f0bc0c335e2aecb78638a257e0351a3fe0370861fd54ee4190b92093381604051610e749190611fe5565b60405180910390a150565b60008054906101000a900473ffffffffffffffffffffffffffffffffffffffff1673ffffffffffffffffffffffffffffffffffffffff163373ffffffffffffffffffffffffffffffffffffffff1614610f0d576040517f08c379a0000000000000000000000000000000000000000000000000000000008152600401610f0490611e93565b60405180910390fd5b6001600060146101000a81548160ff0219169083151502179055507f62e78cea01bee320cd4e420270b5ea74000d11b0c9f74754ebdbfc544b05a25833604051610f579190611a03565b60405180910390a1565b60008054906101000a900473ffffffffffffffffffffffffffffffffffffffff1673ffffffffffffffffffffffffffffffffffffffff163373ffffffffffffffffffffffffffffffffffffffff1614610fef576040517f08c379a0000000000000000000000000000000000000000000000000000000008152600401610fe690611e93565b60405180910390fd5b8061100f8173ffffffffffffffffffffffffffffffffffffffff16611828565b61104e576040517f08c379a000000000000000000000000000000000000000000000000000000000815260040161104590611f79565b60405180910390fd5b6001600860008473ffffffffffffffffffffffffffffffffffffffff1673ffffffffffffffffffffffffffffffffffffffff16815260200190815260200160002060006101000a81548160ff0219169083151502179055508173ffffffffffffffffffffffffffffffffffffffff167f17fd2b1851acfef356d5d7608b75ab8304bd6a120c935a4a22879acdec7dfa5060405160405180910390a25050565b6000600560008373ffffffffffffffffffffffffffffffffffffffff1673ffffffffffffffffffffffffffffffffffffffff168152602001908152602001600020549050919050565b60008054906101000a900473ffffffffffffffffffffffffffffffffffffffff1673ffffffffffffffffffffffffffffffffffffffff163373ffffffffffffffffffffffffffffffffffffffff16146111c4576040517f08c379a00000000000000000000000000000000000000000000000000000000081526004016111bb90611e93565b60405180910390fd5b600060149054906101000a900460ff16611213576040517f08c379a000000000000000000000000000000000000000000000000000000000815260040161120a90612085565b60405180910390fd5b60004790506000811161125b576040517f08c379a0000000000000000000000000000000000000000000000000000000008152600401611252906120f1565b60405180910390fd5b60008060009054906101000a900473ffffffffffffffffffffffffffffffffffffffff1673ffffffffffffffffffffffffffffffffffffffff16826040516112a290611dc6565b60006040518083038185875af1925050503d80600081146112df576040519150601f19603f3d011682016040523d82523d6000602084013e6112e4565b606091505b5050905080611328576040517f08c379a000000000000000000000000000000000000000000000000000000000815260040161131f90611e27565b60405180910390fd5b60008054906101000a900473ffffffffffffffffffffffffffffffffffffffff1673ffffffffffffffffffffffffffffffffffffffff167f7fcf532c15f0a6db0bd6d0e038bea71d30d808c7d98cb3bf7268a95bf5081b658360405161138e919061187a565b60405180910390a25050565b60035481565b600060149054906101000a900460ff16156113f0576040517f08c379a00000000000000000000000000000000000000000000000000000000081526004016113e790611a7b565b60405180910390fd5b600154341015611435576040517f08c379a000000000000000000000000000000000000000000000000000000000815260040161142c9061215d565b60405180910390fd5b61148734600460003373ffffffffffffffffffffffffffffffffffffffff1673ffffffffffffffffffffffffffffffffffffffff1681526020019081526020016000205461177190919063ffffffff16565b600460003373ffffffffffffffffffffffffffffffffffffffff1673ffffffffffffffffffffffffffffffffffffffff168152602001908152602001600020819055506114df3460035461177190919063ffffffff16565b6003819055503373ffffffffffffffffffffffffffffffffffffffff167f264f630d9efa0d07053a31163641d9fcc0adafc9d9e76f1c37c2ce3a558d2c523460405161152b919061187a565b60405180910390a2565b60008054906101000a900473ffffffffffffffffffffffffffffffffffffffff1673ffffffffffffffffffffffffffffffffffffffff163373ffffffffffffffffffffffffffffffffffffffff16146115c3576040517f08c379a00000000000000000000000000000000000000000000000000000000081526004016115ba90611e93565b60405180910390fd5b816115e38173ffffffffffffffffffffffffffffffffffffffff16611828565b611622576040517f08c379a000000000000000000000000000000000000000000000000000000000815260040161161990611f79565b60405180910390fd5b60008211611665576040517f08c379a000000000000000000000000000000000000000000000000000000000815260040161165c906121c9565b60405180910390fd5b6116b782600560008673ffffffffffffffffffffffffffffffffffffffff1673ffffffffffffffffffffffffffffffffffffffff1681526020019081526020016000205461177190919063ffffffff16565b600560008573ffffffffffffffffffffffffffffffffffffffff1673ffffffffffffffffffffffffffffffffffffffff168152602001908152602001600020819055508273ffffffffffffffffffffffffffffffffffffffff167f79e1204b22e0669817ad586b72c3139f6c32afa18749b53228050f4c7f69646783604051611740919061187a565b60405180910390a2505050565b60008054906101000a900473ffffffffffffffffffffffffffffffffffffffff1681565b60008082846117809190612218565b9050838110156117c5576040517f08c379a00000000000000000000000000000000000000000000000000000000081526004016117bc90612298565b60405180910390fd5b8091505092915050565b600082821115611814576040517f08c379a000000000000000000000000000000000000000000000000000000000815260040161180b90612304565b60405180910390fd5b81836118209190612324565b905092915050565b60008073ffffffffffffffffffffffffffffffffffffffff168273ffffffffffffffffffffffffffffffffffffffff1614159050919050565b6000819050919050565b61187481611861565b82525050565b600060208201905061188f600083018461186b565b92915050565b600080fd5b600073ffffffffffffffffffffffffffffffffffffffff82169050919050565b60006118c58261189a565b9050919050565b6118d5816118ba565b81146118e057600080fd5b50565b6000813590506118f2816118cc565b92915050565b60006020828403121561190e5761190d611895565b5b600061191c848285016118e3565b91505092915050565b61192e81611861565b811461193957600080fd5b50565b60008135905061194b81611925565b92915050565b60006020828403121561196757611966611895565b5b60006119758482850161193c565b91505092915050565b60008115159050919050565b6119938161197e565b82525050565b60006020820190506119ae600083018461198a565b92915050565b600080604083850312156119cb576119ca611895565b5b60006119d9858286016118e3565b92505060206119ea8582860161193c565b9150509250929050565b6119fd816118ba565b82525050565b6000602082019050611a1860008301846119f4565b92915050565b600082825260208201905092915050565b7f436f6e7472616374206973207061757365640000000000000000000000000000600082015250565b6000611a65601283611a1e565b9150611a7082611a2f565b602082019050919050565b60006020820190508181036000830152611a9481611a58565b9050919050565b7f416d6f756e74206d757374206265203e20300000000000000000000000000000600082015250565b6000611ad1601283611a1e565b9150611adc82611a9b565b602082019050919050565b60006020820190508181036000830152611b0081611ac4565b9050919050565b7f45786365656473206162736f6c757465206d6178207769746864726177616c2060008201527f6c696d6974000000000000000000000000000000000000000000000000000000602082015250565b6000611b63602583611a1e565b9150611b6e82611b07565b604082019050919050565b60006020820190508181036000830152611b9281611b56565b9050919050565b7f5769746864726177616c20636f6f6c646f776e20616374697665202832346829600082015250565b6000611bcf602083611a1e565b9150611bda82611b99565b602082019050919050565b60006020820190508181036000830152611bfe81611bc2565b9050919050565b7f496e73756666696369656e7420636f6e74726163742062616c616e6365000000600082015250565b6000611c3b601d83611a1e565b9150611c4682611c05565b602082019050919050565b60006020820190508181036000830152611c6a81611c2e565b9050919050565b7f4e6f20616c6c6f636174696f6e2e20506c65617365207265717565737420616460008201527f6d696e20617070726f76616c2e00000000000000000000000000000000000000602082015250565b6000611ccd602d83611a1e565b9150611cd882611c71565b604082019050919050565b60006020820190508181036000830152611cfc81611cc0565b9050919050565b7f496e73756666696369656e7420616c6c6f63617465642066756e64732e20526560008201527f717565737420617070726f76616c2e0000000000000000000000000000000000602082015250565b6000611d5f602f83611a1e565b9150611d6a82611d03565b604082019050919050565b60006020820190508181036000830152611d8e81611d52565b9050919050565b600081905092915050565b50565b6000611db0600083611d95565b9150611dbb82611da0565b600082019050919050565b6000611dd182611da3565b9150819050919050565b7f5472616e73666572206661696c65640000000000000000000000000000000000600082015250565b6000611e11600f83611a1e565b9150611e1c82611ddb565b602082019050919050565b60006020820190508181036000830152611e4081611e04565b9050919050565b7f43616c6c6572206973206e6f74207468652061646d696e000000000000000000600082015250565b6000611e7d601783611a1e565b9150611e8882611e47565b602082019050919050565b60006020820190508181036000830152611eac81611e70565b9050919050565b7f5769746864726177616c4c696d69740000000000000000000000000000000000600082015250565b6000611ee9600f83611a1e565b9150611ef482611eb3565b602082019050919050565b60006040820190508181036000830152611f1881611edc565b9050611f27602083018461186b565b92915050565b7f496e76616c696420616464726573730000000000000000000000000000000000600082015250565b6000611f63600f83611a1e565b9150611f6e82611f2d565b602082019050919050565b60006020820190508181036000830152611f9281611f56565b9050919050565b7f4d696e446f6e6174696f6e000000000000000000000000000000000000000000600082015250565b6000611fcf600b83611a1e565b9150611fda82611f99565b602082019050919050565b60006040820190508181036000830152611ffe81611fc2565b905061200d602083018461186b565b92915050565b7f4d7573742062652070617573656420666f7220656d657267656e63792077697460008201527f6864726177000000000000000000000000000000000000000000000000000000602082015250565b600061206f602583611a1e565b915061207a82612013565b604082019050919050565b6000602082019050818103600083015261209e81612062565b9050919050565b7f4e6f2066756e647320746f207769746864726177000000000000000000000000600082015250565b60006120db601483611a1e565b91506120e6826120a5565b602082019050919050565b6000602082019050818103600083015261210a816120ce565b9050919050565b7f446f6e6174696f6e2062656c6f77206d696e696d756d20616d6f756e74000000600082015250565b6000612147601d83611a1e565b915061215282612111565b602082019050919050565b600060208201905081810360008301526121768161213a565b9050919050565b7f416c6c6f636174696f6e206d757374206265203e203000000000000000000000600082015250565b60006121b3601683611a1e565b91506121be8261217d565b602082019050919050565b600060208201905081810360008301526121e2816121a6565b9050919050565b7f4e487b7100000000000000000000000000000000000000000000000000000000600052601160045260246000fd5b600061222382611861565b915061222e83611861565b9250828201905080821115612246576122456121e9565b5b92915050565b7f5574696c6974793a206164646974696f6e206f766572666c6f77000000000000600082015250565b6000612282601a83611a1e565b915061228d8261224c565b602082019050919050565b600060208201905081810360008301526122b181612275565b9050919050565b7f5574696c6974793a207375627472616374696f6e206f766572666c6f77000000600082015250565b60006122ee601d83611a1e565b91506122f9826122b8565b602082019050919050565b6000602082019050818103600083015261231d816122e1565b9050919050565b600061232f82611861565b915061233a83611861565b9250828203905081811115612352576123516121e9565b5b9291505056fea2646970667358221220b06c1492bc31ce0667c4e5a0b6bfe93148a229f9134178052c734df4da672d1664736f6c63430008130033",
  "linkReferences": {},
  "deployedLinkReferences": {}
}